:020000040800F2
:10000000480B002001010008090100080B0100084D
:100010000D0100080F010008110100080000000098
:1000200000000000000000000000000013010008B4
:100030001501000800000000170100081901000860
:100040001B0100081B0100081B0100081B01000820
:100050001B0100081B0100081B0100081B01000810
:100060001B0100081B0100081B0100081B01000800
:100070001B0100081B0100081B0100081B010008F0
:100080001B0100081B0100081B0100081B010008E0
:100090001B0100081B0100081B010008A90D000836
:1000A0001B010008252600081B0100081B01000891
:1000B0001B0100081B0100081B0100081B010008B0
:1000C0001B0100081B0100081B0100081B010008A0
:1000D0001B0100081B0100081B0100081B01000890
:1000E0001B0100081B0100081B010008DFF80CD0F1
:1000F00000F018F80048004739350008480B002088
:100100000648804706480047FEE7FEE7FEE7FEE7B1
:10011000FEE7FEE7FEE7FEE7FEE7FEE799240008BC
:10012000ED000008064C074D06E0E06840F00103D2
:1001300094E8070098471034AC42F6D3FFF7DAFF93
:10014000743A0008943A0008CA430260704721B12B
:10015000826842F00102826003E0826822F00102BC
:100160008260704700B587B001214FF4037001F041
:10017000A1FD0320ADF8040000208DF80700032046
:100180008DF8060001A92B4801F03EF80220ADF8D9
:10019000040000208DF8070003208DF8060001A957
:1001A000254801F031F80020029001208DF80C0064
:1001B00000208DF80D004FF4602004900020059081
:1001C00002A91E4800F06CF800211C4800F043F81A
:1001D00003211A4800F0CDF80023012211461748E8
:1001E00000F086F8002302220921144800F080F86C
:1001F000002303220821114800F07AF801210F485A
:10020000FFF7A5FF0D4800F0C0F800BF0B4800F055
:100210003DF80028FAD1094800F0BCF800BF0748B3
:1002200000F021F80028FAD10121044800F008F874
:1002300007B000BD000C014000080140002401404F
:1002400021B1826842F40042826003E0826822F4B5
:100250000042826070470A460021816821F4E04133
:10026000114381607047014600208A6802F0040251
:100270000AB1012000E00020704702460020136808
:100280000B400BB1012000E0002070470146002028
:100290008A6802F008020AB1012000E000207047DD
:1002A00030B502460020002350680F4C20400D79E5
:1002B0000C6844EA05242043506090680B4C2040B1
:1002C000D1E902542C434D7944EA4504204390601F
:1002D000D06A20F470000C7C641EE4B2234340EA30
:1002E0000350D06230BD0000FFFEF0FFFDF7F1FFCC
:1002F000F0B504461546002000220026092911DD2C
:10030000E068A1F10A0707EB470C072707FA0CF290
:100310009043A1F10A0707EB470703FA07F21043DE
:10032000E0600CE0206901EB410C072707FA0CF2B2
:10033000904301EB410703FA07F210432061A06BE1
:10034000C0F30156EF1C06F1010CA7EB0C0707EBFD
:10035000870C1F2707FA0CF29043EF1C06F1010CE3
:10036000A7EB0C0707EB870701FA07F21043A0631E
:10037000F0BD10B50A4600210023816B21F4401125
:10038000531E41EA0351816310BD816841F00801A9
:1003900081607047816841F00401816070470146C7
:1003A00001EBC10000EB0110001100EB4010001246
:1003B0007047000070B504460025002611E000BF1C
:1003C00004210B48FFF759FF0028F9D008483C30BA
:1003D0000068284485B204210548FFF7B5FE701C6B
:1003E000C6B2A642EBDB95FBF4F080B270BD000014
:1003F0000024014010B5044680222146014802F045
:100400009DFF10BD58380008014601EB810040F304
:100410005910704700B595480078002868D1944875
:100420000078032864D093480078012860D192486E
:10043000008801285CD18E48007801280DD18F48B2
:1004400000888F49098848437F2190FBF1F08D494E
:10045000098808448C49086015E08548007890B9FF
:10046000864800888749098848437F2190FBF1F03E
:1004700084490988081A84490860084600680028E9
:1004800001DA0020086080480068804909688842D5
:1004900017DD7D4800887D490988401A7C4908801D
:1004A0007C480078012806D17B480088002802DDBE
:1004B00001207A490870002079490870794908704C
:1004C00016E07248008870490988401A704908800F
:1004D0007048007830B970480088002802DD01209B
:1004E0006E49087001206E49087000206E4908703E
:1004F0005E48007818B96A480078664908706B4809
:100500000088401C6949088008460088B0F5C86F1B
:1005100023D1002008805E480088062814DD0120D1
:10052000634908705A48008862494861084601F0EA
:10053000A1FA6048808F60490880F0205F490880F8
:1005400096205F49088008E000205B4908805B49ED
:1005500008805B4908804E4908805048007801288F
:100560000BD100205449088054490880484908802C
:100570005349088002204E490870524800780128EB
:100580002DD151480078012829D1504800883B4995
:100590000988884212D14E48007835490978884246
:1005A0000CD100204449088044490880384908801B
:1005B0004349088002203E49087010E0002041496C
:1005C000087041490870F0203C49088096203C4959
:1005D00008802F48008880007E30374908802448F2
:1005E0000078032802D10220314908703948007888
:1005F00010B90020384908702548008801280FDB11
:100600002B48007802280BD027480078012807D013
:1006100024480078012803D02F480078012812D1FF
:1006200000201D4908801D49087001F0F5FE01F009
:10063000B5FA01F001FF00F0E5FA01F0C5FA022079
:100640001B4908700CE0254B9B8F9AB2244B9B8F63
:1006500099B2244B9B8F98B200F0A7FD0E490880F9
:100660000D4800882049088000BD0000A800002037
:10067000810000203A000020A40000206C0000202F
:10068000780000207600002070000020B8000020D4
:100690007A000020800000206A000020BD000020B9
:1006A000E6000020D1000020D0000020E80000205B
:1006B0006800002050060020C0000020E00000205C
:1006C000E200002087000020860000208800002033
:1006D0008A000020A0000020DE0000200C06002080
:1006E00084050020C8050020640000207C480078B4
:1006F000012878D150207B4908807B480078002869
:1007000047D10120794908707948006800F40070E9
:1007100000BB002077490860774908807748008847
:10072000B0F5AF7F10DC02207549087000207549D4
:10073000C86388627449C86388627449C863886200
:1007400001206949087024E06F48C06B40106E4971
:10075000C8631EE06E48007801281AD100206C4959
:10076000087002206649087000206649C8638862E4
:100770006549C86388626549C86388620120654924
:10078000087000205B4908605B49088001205649D9
:1007900008705548007801284FD159490870002049
:1007A000524908705C4800885C49098808445249ED
:1007B0000988B1EB600F04DA4FF47A705849088069
:1007C00016E055480088554909880844C0000A21A8
:1007D00090FBF1F048490988884205DD4FF47A70B2
:1007E0004F49088004E079E04FF47A704C49088062
:1007F000494800884949098808443F49098888428E
:1008000022DC3D48008847490880012037490870AC
:100810003A480088B0F5AF7F10DC022038490870F4
:1008200000203849C86388623749C86388623749FD
:10083000C863886201203C49087039E03248C06BC7
:1008400040103149C86333E03748007818BB32485C
:10085000008832490988084427490988884227DDE9
:1008600032480078012823D12B4800882B49098879
:10087000084400EBC0000A2190FBF1F01E490988F2
:10088000884209DD01202A4908702248007810B901
:100890000120284908700BE0002024490870164800
:1008A00000882049088001201F4908700F490870FE
:1008B0001D480078012803D01D48007801280DD17B
:1008C00000200949087006490870154908800A493E
:1008D0000880044908800220094908707047000018
:1008E000A80000207A000020830000208000002063
:1008F000080C0140B8000020B00000206400002077
:10090000680000200C06002084050020C805002097
:10091000D1000020A10000207600002078000020F7
:10092000BE0000207400002084000020D0000020C1
:1009300085000020A200002010B50948007850B9B9
:1009400008480078012803D1712002F0D5FB02E0AD
:10095000702002F0D1FB00F099FE01F077FB10BD92
:1009600082000020A800002010B5944800780128DB
:1009700047D193480078012803D091480078022895
:100980003CD18F4800788F4908808D4800784AF61E
:10099000AA2148408B4948804AF6AA208880032231
:1009A000894801F081FC03228849874801F068FCEE
:1009B0008648008886490880084600884AF6AA21A9
:1009C000484082494988884214D1804880884AF644
:1009D000AA2188420ED101207E4908707E49087004
:1009E000002076490870764908707C4908707C4977
:1009F000087006E001207A49087002E00120784979
:100A0000087076480078002878D17148008801285D
:100A100003D06F4800880228F6D17248008840F25F
:100A20004A21884211DD704801780078401C6E4AE6
:100A3000107032291EDD3220114608706B48007894
:100A400040F002006949087014E066480088B0F57B
:100A50000C7F0FDA64480078002805DD62480078D2
:100A6000401E6149087005E06048007820F00200EF
:100A70005E4908705B480088642811DA5C48017898
:100A80000078401C5A4A107032291DDD3220114670
:100A900008705648007840F001005449087013E08F
:100AA000504800886E280FDD51480078002805DD89
:100AB0004F480078401E4E49087005E04B480078CA
:100AC00020F0010049490870464800885A2816DA83
:100AD000484801780078401C464A1070322922DDCF
:100AE0003220114608704148007840F004003F4928
:100AF00008700846007820F00100087013E03948BB
:100B0000008864280FDD3B480078002805DD39485F
:100B10000078401E3749087005E03448007820F01E
:100B20000400324908703448006864280BDD2F48FF
:100B3000007840F020002D4908700846007820F029
:100B40004000087009E02C480068552805DA27485D
:100B5000007820F0200025490870274800685A28AE
:100B600006DD2248007840F040002049087009E086
:100B700021480068502805DA1C48007820F0400021
:100B80001A4908701C480068502803DDC0201B4922
:100B9000088006E018480068552802DD78201749CB
:100BA000088017480088B0F5967F05DD0F4800786B
:100BB00040F008000D49087010BD0000A60000209C
:100BC0006E000020EA00002000780008F0000020FD
:100BD000A4000020A8000020A7000020AA000020F8
:100BE000A9000020DA00002011010020A000002050
:100BF0001201002010010020D4000020E00000209D
:100C0000D80000200220064908600120486000202A
:100C10008862C863886188634FF4E1604863704705
:100C2000C805002010B553480078002851D152481B
:100C300000780128FAD15148007801284AD150485B
:100C40000088504908804D4800784F4908704F4946
:100C5000088800EBD07149104D4A11804B49088833
:100C600000EBD07149104B4A11804B48008848492D
:100C700008804948008840F60841081A1146088053
:100C8000434800884549088010460088488010463F
:100C900000883F4909884840404988804AF6AA2090
:100CA000C88004223E4801F0FFFA04223D493C4836
:100CB00001F0E6FA3B48C0883849C988884257D1D4
:100CC0003848808835498988884251D1012029498E
:100CD00008704DE029480078002849D1284800884C
:100CE000284908802548007827490870274908883E
:100CF00000EBD0714910264A11802449088800EB86
:100D0000D0714910234A1180234800882049088067
:100D10002148008840F60841081A114608801C48FE
:100D200000881E49088010460088488010460088C8
:100D3000174909884840194988804AF6AA20C8807E
:100D40000422174801F0B0FA04221649144801F0B1
:100D500097FA1448C0881149C988884208D11148B7
:100D600080880E498988884202D101200149087093
:100D700010BD0000870000208600002081000020B8
:100D80006C000020880000208A00002074000020F1
:100D90007600002078000020B80000209800002095
:100DA000007C00089000002010B50024402000F0D6
:100DB000EDF810B1402000F0E3F8802000F0E6F8F4
:100DC00010B1802000F0DCF84FF4807000F0DEF805
:100DD00018B14FF4807000F0D3F85A4800F0E8FAE8
:100DE000594908800846008800F4E07008800846E9
:100DF0000088801108800846007800F007005349F9
:100E0000534A1278895C88420BD152480068401CD2
:100E1000504908605048007820F080004E49087022
:100E200028E04948007800F007014C48484A127809
:100E3000805C81420BD147480068401E45490860EC
:100E40004548007820F080004349087012E03E4891
:100E5000007800F0070028B13B48007800F0070058
:100E6000072807D13C48007840F080003A490870D4
:100E700000F004FB3448007800F0070034490870A3
:100E800037480088401C36490880364800780128D9
:100E900003D035480078012802D10020304908806D
:100EA00032480088401C3149088000F049FB304836
:100EB0000078254909784840C4B204F0010028B1FF
:100EC0002C480088401C2B49088002E0002029495A
:100ED000088004F0020028B127480088401C2649F9
:100EE000088002E000202449088004F0040028B1B2
:100EF00022480088401C2149088002E000201F4948
:100F00000880114800781A4908701A480088C828D3
:100F100007DC19480088C82803DC18480088C8285E
:100F20000EDD0D48007840F010000B49087002F00B
:100F300007FC00200F4908800F4908800F490880EE
:100F400010BD0000000C0140160000206A3A0008A5
:100F5000BC000020B8000020A0000020623A000879
:100F6000B00000208400002085000020B200002096
:100F7000200000201A0000201C0000201E0000207D
:100F80000149086070470000140401400146002038
:100F90000022074B1B6803EA0102054B14331B6850
:100FA0000B4013B10AB1012000E00020704700009F
:100FB00000040140002123498279002A3AD00A46E0
:100FC000126803689A430B461A600A1D1268036888
:100FD0009A430B1D1A60027911440A6803681A4388
:100FE0000A60184A0832126803689A43154B08339E
:100FF0001A601A1D126803689A43124B0C331A6068
:101000004279102A0ED11A1F126803681A430D4B39
:1010100008331A601A1D126803681A43094B0C330F
:101020001A600DE00749427911440A6803681A43BF
:101030000A6005E0027911440A6803689A430A606D
:10104000704700000004014000200649087006496E
:101050000870064908700649087006490870064974
:1010600008707047DE000020A0000020A1000020D2
:10107000A2000020D0000020D100002030B504469E
:1010800004254FF4302000F07DF80546042D17D1DB
:101090000C48006940F002000A49086108464461B2
:1010A000006940F0400008614FF4302000F06AF819
:1010B00005460448006941F6FD7108400149086190
:1010C000284630BD0020024004200B49C96801F0C9
:1010D000010109B101200EE00749C96801F00401CE
:1010E00009B1022007E00449C96801F0100109B103
:1010F000032000E0042070470020024003480069FC
:1011000040F0800001490861704700000020024063
:101110000549096821F01001034A11601146096868
:1011200001431160704700000020024070B5044682
:101130000D460426F00200F025F80646042E11D1D3
:101140000948006940F00100074908612580F00264
:1011500000F018F806460448006941F6FE710840A0
:1011600001490861304670BD002002400248034931
:1011700048600348486070472301674500200240EB
:10118000AB89EFCD00B502460423FFF79DFF034670
:1011900003E0FFF799FF0346521E012B01D1002AFD
:1011A000F7D102B90523184600BD03468B4205DA84
:1011B000934201DA184670471046FCE7914201DA83
:1011C0000846F8E71046F6E730B500228B071C0FFB
:1011D0000F2303FA04F20B4B8C1053F82430934383
:1011E000084C8D1044F8253023468C1053F82430D9
:1011F0008C07240F00FA04F42343024C8D1044F8AA
:10120000253030BD080001402DE9F041024600259F
:101210000026002000230024002791F803C00CF0D2
:101220000F0591F803C00CF0100CBCF1000F03D0B7
:1012300091F802C04CEA050591F800C0BCF1000F1E
:1012400031D0146800202BE04FF0010C0CFA00F3B1
:10125000B1F800C00CEA03069E4220D183004FF093
:101260000F0C0CFA03F7BC4305FA03FC4CEA040428
:1012700091F803C0BCF1280F06D14FF0010C0CFA15
:1012800000FCC2F814C00AE091F803C0BCF1480F9A
:1012900005D14FF0010C0CFA00FCC2F810C0401C44
:1012A0000828D1D31460B1F800C0BCF1FF0F34DDC1
:1012B000546800202EE000F1080C4FF0010808FAF5
:1012C0000CF3B1F800C00CEA03069E4221D1830062
:1012D0004FF00F0C0CFA03F7BC4305FA03FC4CEA81
:1012E000040491F803C0BCF1280F05D100F1080CEB
:1012F00008FA0CF8C2F8148091F803C0BCF1480F4A
:1013000007D100F1080C4FF0010808FA0CF8C2F8F8
:101310001080401C0828CED35460BDE8F081000046
:10132000F0B50A46002300240021002500F0004605
:10133000B6F1004F02D11D4EF16901E01B4E7168FC
:10134000C0F3034583B200F44016B6F5401F08D140
:1013500021F07061154E766826F07066134F7E603E
:1013600012E000F48016B6F5801F06D1032606FAB7
:1013700005F4A14341F0706106E0460D360103FA21
:1013800006F6B14341F0706122B1460D360103FA11
:1013900006F6314300F00046B6F1004F02D1034E8D
:1013A000F16101E0014E7160F0BD000000000140FC
:1013B0000146886880B270470246002093680B405F
:1013C0000BB1012000E000207047416170470161CE
:1013D0007047000070B5002508212348FFF7F7FF8C
:1013E000052002F027F8002439E04FF400611F487F
:1013F000FFF7EBFF05E0681CC5B2C82D01DD00203A
:1014000070BD02211A4800F00FFF0028F3D000251C
:10141000184830F81410164800F012FF05E0681C58
:10142000C5B2C82D01DD0020EAE70121104800F017
:10143000FBFE0028F3D000250CB9082600E0661E4C
:101440000B4800F0FAFE0C4921F816004FF4006139
:101450000648FFF7BCFF012001F0ECFF641C092CDB
:10146000C3DB0120CCE70000000C01400008014074
:1014700000300140503A00080000002010B50D482F
:10148000007800F08000802810D10B480078401CC4
:10149000094908700846007864280ADB00200870B3
:1014A00002200649087002F06DF902E000200249AE
:1014B000087010BDA0000020160100206800002068
:1014C0001FB50121082000F0F5FB4FF4E070ADF8E6
:1014D0000C0004208DF80F0003208DF80E0003A9E6
:1014E0001648FFF791FE06210120FFF76DFE072148
:1014F0000120FFF769FE08210120FFF765FE4FF488
:10150000E070019000208DF8080010208DF809008F
:1015100001208DF80A0001A8FFF74CFD17208DF877
:10152000000000208DF801008DF8020001208DF8E8
:101530000300684600F02EFA1FBD0000000C0140B9
:1015400010B54C480078012806D14B48007880F04F
:1015500007004A49087003E0474800784749087087
:101560004648007807287DD2DFE800F0806A4156BF
:1015700018042C0042480088424908800020091DB8
:101580000880091D08804FF4A0613F48FFF71DFF48
:101590004FF400713C48FFF71AFF68E038480088B4
:1015A000384908800020091D0880091D08804FF473
:1015B00040713548FFF709FF4FF480613248FFF76B
:1015C00006FF54E000202F4908802D480088091D9F
:1015D00008800020091D08804FF440712A48FFF759
:1015E000F4FE4FF480612848FFF7F1FE3FE0002051
:1015F0002449088022480088091D08800020091D10
:1016000008804FF4C0612048FFF7DFFE4FF480717F
:101610001D48FFF7DCFE2AE000201A490880091D5A
:10162000088017480088091D08804FF4C0611648DB
:10163000FFF7CBFE4FF480711348FFF7C8FE16E0AA
:10164000002010490880091D08800D480088091DE8
:1016500008804FF4A0610C48FFF7B7FE4FF400710B
:10166000094800E002E0FFF7B2FE00E000BF00BF63
:1016700010BD000080000020160000206600002041
:1016800064000020342C01400008014010B500F037
:10169000D7FB002862D03448047834480470A4F1A1
:1016A0007000082858D2DFE800F01C2F33454D5752
:1016B000050452E001202E4908702B4840780002B2
:1016C0002C490880284880782B49087029480088D0
:1016D00009780844294908600846006828490860D4
:1016E0003BE021484078274908701F488078264908
:1016F0000880012025490870234800887F2802DDE2
:101700007F202149088028E001202149087024E039
:10171000012020490870144840781A49087012487E
:10172000807819490880084600887F2801DD7F20DD
:10173000088012E00120184908700B48807817498A
:1017400008700AE00120164908700748807864286C
:1017500001D11449087000E000BF00BF204601F02D
:10176000CBFC002010BD0000430000203100002011
:101770003800002056000020580000205C000020A7
:10178000B8000020810000206C0000203A000020FA
:101790008200002086000020A60000206E000020AD
:1017A000DE000020DF0000204CF6CC40014908603C
:1017B000704700000030004070B505460C4645F209
:1017C000555000F01FF8284600F010F8204600F0B1
:1017D00013F800F003F8FFF7E7FF70BD4AF6AA2000
:1017E000014908607047000000300040014948602E
:1017F00070470000003000400149886070470000D9
:10180000003000400149086070470000003000408F
:1018100008B50121182000F04DFA0121092000F03F
:1018200049FA0820ADF8000010208DF803000320CD
:101830008DF8020069464248FFF7E6FC0121414865
:10184000FFF76EFD0121082000F034FA4FF48050BC
:10185000ADF8000048208DF8030003208DF8020049
:1018600069463748FFF7D0FC0121082000F022FA32
:101870004FF40060ADF8000048208DF8030003200D
:101880008DF8020069462E48FFF7BEFC01210820B2
:1018900000F010FA4FF48060ADF8000048208DF899
:1018A000030003208DF8020069462548FFF7ACFCD1
:1018B0000121042000F0FEF91020ADF800008DF8A1
:1018C000030003208DF8020069461F48FFF79CFCC7
:1018D00010211D48FFF77BFD0121042000F0EAF9EB
:1018E0004FF40060ADF8000010208DF803000320D5
:1018F0008DF8020069461448FFF786FC4FF400613A
:101900001148FFF764FD4FF40070ADF800000420AB
:101910008DF8030003208DF8020069460848FFF7A0
:1019200073FC4FF40050ADF8000010208DF8030058
:1019300003208DF8020069460448FFF765FC08BDE6
:10194000000C01400002300000080140001001407E
:1019500070B504460D461646EF2006490870084645
:1019600044708570C670042100F006F801490871C2
:1019700070BD00003B00002010B502460B46002061
:10198000002103E0545C60404C1CE1B29942F9DB59
:1019900010BD000070B5002100230F22C47804B3ED
:1019A000154C246804F4E064C4F5E064210AC1F134
:1019B0000403CA40447804FA03F1847814402143B4
:1019C00009010E4C0678A155047804F01F05012486
:1019D000AC4005786D11AD0005F1E025C5F800417A
:1019E00009E0047804F01F050124AC40044D06789A
:1019F000761145F8264070BD0CED00E000E400E0F3
:101A000080E100E002490143024A11607047000092
:101A10000000FA050CED00E0024A0A400243024BC6
:101A20001A60704780FFFF1F08ED00E0D0E9031245
:101A3000891A4161D0E9001211444269514341625F
:101A40008269016851438162426AC16B1144826AB2
:101A50001144C16341698161426BC16B914202DDF6
:101A6000416BC16305E0D0E90E21914201DA816B3F
:101A7000C163704740F6B8324169914201DD1146B9
:101A80004161D0E90512891A026851438910416207
:101A9000426941685143491081620223C269416928
:101AA00003FB12118269114482685143C162426A88
:101AB000C16B1144826A1144C26A1144C163416915
:101AC00081618169C161426BC16B914202DD416BF1
:101AD000C16305E0D0E90E21914201DA816BC16357
:101AE0007047D0E90312891A4161D0E9001211440C
:101AF00042695143642291FBF2F1416283690268B9
:101B000002FB03F101EBD17252108262426AC16B97
:101B10001144826A1144C16341698161426BC16BA6
:101B2000914202DD416BC16305E0D0E90E21914293
:101B300001DA816BC1637047D0E90312891A4161F0
:101B40004169B1F5487F02DD4FF448714161D0E948
:101B50000012114442695143642291FBF2F1416247
:101B6000826901685143142291FBF2F18162426A59
:101B7000C16B1144826A1144C16341698161426B46
:101B8000C16B914202DD416BC16305E0D0E90E21DA
:101B9000914201DA816BC16370470000012009495D
:101BA0000860032048600420886000208862C862C2
:101BB0004862C8638861C861886340F2DC5048634A
:101BC00070470000500600200220064908600120EE
:101BD000486000208862C863886188634FF4E160D0
:101BE000486370470C06002010B5042211491248C2
:101BF00000F046FB0F48C0884AF6AA21884211D15E
:101C00000C4800880B49498848400A49898888421D
:101C100008D10848008809490880064840880849D2
:101C2000088005E040F20460044908800449088007
:101C300010BD000090000020007C0008760000200D
:101C40007800002010B503220F49104800F018FB5F
:101C50000D4800880E490880084600884AF6AA21E7
:101C600048400949498888420AD1074880884AF68D
:101C7000AA21884204D1044800880549088002E06E
:101C800002200349088010BDF00000200078000801
:101C9000A400002029B1064A12690243044B1A61CC
:101CA00004E0034A12698243014B1A617047000045
:101CB0000010024029B1064A92690243044B9A611E
:101CC00004E0034A92698243014B9A617047000025
:101CD0000010024029B1064AD2680243044BDA6080
:101CE00004E0034AD2688243014BDA607047000087
:101CF0000010024010B5002400F052F8012000F05E
:101D000093F82548406820F0F000234948600846D1
:101D1000406820F4605048600846446824F4E06459
:101D200044F4806444601D48006800F038001B499A
:101D300008600846006840F0020008601020FFF7C5
:101D4000E7F91648006820F01000144908600846BA
:101D5000006840F0100008600F48446824F47C14C8
:101D600044F462144460012000F064F800BF39209C
:101D700000F03CF80028FAD00748446824F0030437
:101D800044F00204446000BF0348406800F00C00C7
:101D90000828F9D110BD00000010024000200240C8
:101DA0000F48006840F001000D490860084640688F
:101DB0000C4908400A494860084600680A4908403A
:101DC000074908600846006820F48020086008463B
:101DD000406820F4FE0048604FF41F0088607047A0
:101DE000001002400000FFF8FFFFF6FE10B50146AC
:101DF0000022002300204A11012A02D1094C236845
:101E000006E0022A02D1074C236A01E0054C636A0E
:101E100001F01F02012494401C400CB1012000E09D
:101E2000002010BD0010024001490860704700000A
:101E3000000042420149086670470000000042422B
:101E400008B5684600F07AF9002879D04B48007848
:101E500030B1012818D0022857D0032871D171E081
:101E60009DF80000EF2808D144480078401C434901
:101E70000870EF204249087002E000203F490870D6
:101E800000204049087076E09DF8000077281FD0B8
:101E90009DF8000076281BD09DF80000702817D010
:101EA0009DF80000712813D09DF8000072280FD013
:101EB0009DF8000073280BD09DF80000742807D00F
:101EC0009DF80000522803D09DF80000752816D117
:101ED0002A480078401C29490870294800789DF854
:101EE00000104840264908709DF8001025480278E7
:101EF0000078401C234B18702348815404E00020D4
:101F00001E4908701F49087035E09DF800101D48F3
:101F100002780078401C1B4B18701B4881541848ED
:101F200000789DF800104840154908701846007860
:101F3000032804DB11480078401C104908701AE09F
:101F40001AE017E000200D4908700E4908709DF84E
:101F500000000E4908700A4800789DF80010884279
:101F600007D10B480088401E0949088006480078C0
:101F700008BD00E000BF00BF0020F9E740000020DE
:101F800042000020410000204300002047000020C4
:101F90003400002000B587B001210420FFF78AFE3D
:101FA00001210803FFF786FE2020ADF81800182055
:101FB0008DF81B0003208DF81A0006A92148FFF7B1
:101FC00023F94020ADF8180048208DF81B000320AD
:101FD0008DF81A0006A91B48FFF716F98020ADF806
:101FE000180018208DF81B0003208DF81A0006A990
:101FF0001448FFF709F90020ADF804004FF482708F
:10200000ADF806004FF40060ADF808000020ADF810
:102010000A000120ADF80C004002ADF80E00382097
:10202000ADF810000020ADF812000720ADF8140044
:1020300001A9054800F006F90121034800F0E8F87D
:1020400007B000BD000801400030014070B5002419
:102050002DE010212248FFF7B8F905E0601C84B29A
:10206000C82C01DD002070BD02211E4800F0DCF804
:102070000028F3D0002400F089F8054629461948C5
:1020800000F0DEF805E0601C84B2C82C01DD002001
:10209000E9E70121134800F0C7F80028F3D0002435
:1020A000104800F0CAF8C5B2284600F08DF80E4876
:1020B00090F869000028CCD106E0601C84B2B4F529
:1020C0007A7F01DD0020CEE70221064800F0ACF85F
:1020D0000028F2D010210248FFF779F90120C2E769
:1020E000000801400030014018010020014612485C
:1020F00090F86900322801DB002070470E4890F804
:10210000672032308154323890F86700401C0A4A08
:1021100082F86700104690F86700322802DB002042
:1021200082F86700044890F86900401C024A82F86F
:1021300069000120E1E70000180100200146124873
:1021400090F8680008B9002070470F4890F86400C4
:102150000D4A105C0870104690F86400401C82F82C
:102160006400104690F86400322802DB002082F8F8
:10217000640072B6044890F86800401E024A82F873
:10218000680062B60120DFE7180100200D4991F8D0
:1021900066203231885C323991F86610491C094A50
:1021A00082F86610114691F86610322902DB002190
:1021B00082F86610034991F86910491E014A82F8B5
:1021C00069107047180100200146104890F865001A
:1021D0000E4A1154104690F86500401C82F86500C4
:1021E000104690F86500322802DB002082F8650076
:1021F000064890F86800401CC0B2044A82F86800A3
:10220000322801DB012070470020FCE71801002084
:1022100021B1028842F04002028004E002884FF6B9
:10222000BF731A40028070470246002013890B409A
:102230000BB1012000E000207047014688897047FB
:102240008181704710B50022028802F441520B8848
:102250004C8823438C882343CC8823430C89234315
:102260004C8923438C892343CC8923431A4302801E
:10227000838B4FF2FF74234083830B8A038210BD4C
:1022800030B503460C461546002207E0184600F01C
:1022900008F824F812009B1C501C82B2AA42F5DBFD
:1022A00030BD0146088870472DE9F04105460E46CD
:1022B0001746FEF75BFF1FE0A5F10061890A4FF0AA
:1022C000006202EB8120FEF7D9FE002406E036F81A
:1022D00014000C4921F81400601C84B2BC42F6DBE7
:1022E000A5F10061890A4FF0006202EB81203A46B5
:1022F000044900F009F800E0DEE700BFFEF7FEFE4B
:10230000BDE8F081820100202DE9F04105460E462E
:102310001746002407E036F814102846FEF706FF9B
:10232000AD1C601C84B2BC42F5DBBDE8F08110B589
:1023300000F002F810BD00000CB5002001900090E4
:102340003348006840F480303149086000BF3048AD
:10235000006800F4003000900198401C0190009843
:1023600018B90198B0F5A06FF1D12948006800F4C0
:10237000003010B10120009001E000200090009892
:10238000012843D12348006840F01000214908602B
:102390000846006820F0030008600846006840F026
:1023A000020008601A4840681949486008464068B9
:1023B00048600846406840F48060486008464068CD
:1023C00020F47C1048600846406840F4C81048601B
:1023D0000846006840F08070086000BF0C48006844
:1023E00000F000700028F9D00948406820F0030090
:1023F000074948600846406840F00200486000BF56
:102400000348406800F00C000828F9D10CBD00001A
:102410000010024000200240012006490860486088
:1024200000208862C863886188634FF4E160486374
:102430007047000084050020002000BF05E04FF435
:10244000BA61094A42F82010401C2A28F7DB4FF2F3
:102450002441064A91600021518040F2EE21118012
:1024600042F22831D1807047A00600209406002057
:10247000042808D14FF0E021096941F004014FF030
:10248000E022116107E04FF0E021096921F0040129
:102490004FF0E0221161704710B51348006840F01A
:1024A00001001149086008464068104908400E497B
:1024B0004860084600680E4908400B490860084615
:1024C000006820F4802008600846406820F4FE0080
:1024D00048604FF41F008860FFF729FF4FF000604D
:1024E0000449086010BD0000001002400000FFF821
:1024F000FFFFF6FE08ED00E000B589B0012140F6CF
:102500000C00FFF7D7FB444800F072FB4FF4E0608B
:10251000ADF8200003208DF8220010208DF8230054
:1025200008A93E48FEF770FE4FF46040ADF8200069
:1025300018208DF8230003208DF8220008A93848C0
:10254000FEF762FE05A800F0CDFD40F2CF70ADF8B9
:1025500018000020ADF814002020ADF8160000018E
:10256000ADF81A0000208DF81C0005A92A4800F0DB
:1025700067FD20202849091D088001A800F055FDAD
:102580006020ADF804000020ADF806000420ADF88E
:1025900008000020ADF80A00ADF80E0001A91E48A1
:1025A00000F034FC01A91C4800F086FC01A91A487F
:1025B00000F0E2FC0821184800F074FC08211648DD
:1025C00000F0CCFC0821144800F026FD19208DF8FD
:1025D000000001208DF8010000208DF8020001208C
:1025E0008DF803006846FFF7D5F9012211460A4825
:1025F00000F003FC0121084800F0CCFA0021064855
:1026000000F0E6FA0121044800F0D0FA0121024866
:1026100000F0D2FA09B000BD002C014000080140D2
:10262000000C014010B50121FD4800F0D5FB002849
:102630007ED00121FA4800F0BCFAFA48007800F098
:102640000700072807D1F848007840F08000F649D5
:102650000870FEF713FFF5480078401CF349087036
:1026600008460078102804D1002008700120F049A5
:102670000870EB483030008840B9E94824300088C1
:10268000642803DD0120E64930310880E94800680C
:10269000E9490880E748001D0068E8490880E548E6
:1026A00008300068E6490880E3480088E549098861
:1026B000884207DADF480068E2490988081ADE49DB
:1026C000088002E00020DC490880DF4A128802EB23
:1026D0004201CA1701EB92729210D84B1888C317A7
:1026E00000EB937302EBA302D84B1A80D84A1288EE
:1026F00002EB4201CA1701EB92729210CE4B18887E
:10270000C31700EB937302EBA302D24B1A80D24A99
:10271000128802EB4201CA1701EB92729210C84B69
:102720001888C31700EB937302EBA302CB4B00E0B6
:1027300015E21A80C7480088FDF731FEC8490880B5
:10274000C2480088FDF760FEC64908800846008838
:10275000C34909884843642190FBF1F0C2490880CD
:10276000BC480088BA490880B8480088B649088043
:10277000BA480088B8490880BC48006800F4007076
:1027800020B90020BA490860BA49088000F004FE68
:1027900001F03AF8B3480088B0F5F07F4DDDB64857
:1027A0000078012845D1B5480069B0F5967F40DC36
:1027B000AB48008814283CDDB1480088401CB04973
:1027C00008800846008844F62061884230DD0020F9
:1027D000AB490880AB48007818B90120AA490870B5
:1027E00002E00120A9490870A948007801280BD10E
:1027F000A5480078012807D18B48007840F01000E8
:102800008949087000F09CFFA148007800280FD18A
:102810009D480078012803D09C4800780128F6D113
:102820008148007840F010007F49087000F088FF70
:1028300088E100209249088084E18A480088B0F548
:10284000BE7F4DDD8C480078012845D18B4800695A
:10285000B0F5967F40DC8248008819283CDD884826
:102860000088401C864908800846008844F620619C
:102870008842DDDD0020824908808248007818B94E
:1028800001208149087002E00120804908708048D9
:10289000007801280BD17C480078012807D16248D4
:1028A000007840F010006049087000F049FF784857
:1028B00000780028BCD174480078012803D0734800
:1028C00000780128B4D15848007840F010005649EB
:1028D000087000F035FF35E100206949088031E1DA
:1028E00060480088B0F58C7F4DDD63480078012892
:1028F00045D162480069B0F5967F40DC58480088B1
:102900001E283CDD5E480088401C5D490880084662
:10291000008844F6206188428ADD002058490880FA
:102920005848007818B901205749087002E0012082
:10293000564908705648007801280BD15248007853
:10294000012807D13848007840F010003649087057
:1029500000F0F6FE4E4800780028BCD14A480078C6
:10296000012803D0494800780128B4D12E480078C6
:1029700040F010002C49087000F0E2FEE2E0002078
:102980003F490880DEE037480088B42847DD3A48F0
:10299000007801287ED139480069B0F5967F7DDC4A
:1029A0002F480088282879DD35480088401C3449A4
:1029B00008800846008844F6206188422EDD002009
:1029C0002F4908802F48007818B901202E49087037
:1029D00002E001202D4908702D48007801280BD114
:1029E00029480078012807D10F48007840F01000EE
:1029F0000D49087000F0A4FE2548007870B92248FF
:102A00000078012803D021480078012806D1064823
:102A1000007840F01000044908703CE092E041E08A
:102A2000002C014016000020A0000020180000200B
:102A3000140000203C240140C6000020C8000020F3
:102A4000CC000020C400002024000020CA00002088
:102A500022000020E400002026000020CE000020FC
:102A6000D8000020DA000020DC000020080C014023
:102A7000B8000020B000002068000020840500207D
:102A80002800002080000020D0000020D10000207D
:102A9000A800002002E000F053FE53E0002030497F
:102AA00008804FE02F48008850284BDD2E480078E2
:102AB000012844D12D480069B0F5967F3FDC2C48B1
:102AC000008832283BDD26480088401C24490880C5
:102AD0000846008844F62061884233DD0020204902
:102AE00008802448007818B901202349087002E0C2
:102AF0000120224908702248007801280BD11E4885
:102B00000078012807D11F48007840F010001D49C7
:102B1000087000F015FE1A48007898B91648007839
:102B2000012803D01548007801280BD115480078FA
:102B300040F010001349087000F002FE02E000208F
:102B40000749088010480078012806D100200E4966
:102B500008700E4800680E490860FDF75BFC10BD68
:102B600028000020DA0000206800002084050020F2
:102B7000D800002080000020D0000020D1000020DC
:102B8000A8000020A0000020390000205C000020E8
:102B9000B800002021B1028842F08002028004E0E7
:102BA00002884FF67F731A4002807047CA43028240
:102BB0007047CA430282704721B1028842F0010285
:102BC000028004E002884FF6FE731A4002807047CC
:102BD00031B1B0F8442042F40042A0F8442005E0AE
:102BE000B0F84420C2F30E02A0F844207047000061
:102BF00010B504466848844208D10121C014FFF78B
:102C000069F80021E014FFF765F8C4E0B4F1804FE3
:102C100008D101210846FFF73DF800210120FFF708
:102C200039F8B8E05D48844208D101210220FFF75D
:102C300031F800210220FFF72DF8ACE0584884421B
:102C400008D101210420FFF725F800210420FFF717
:102C500021F8A0E05348844208D101210820FFF761
:102C600019F800210820FFF715F894E04E48844237
:102C700008D101211020FFF70DF800211020FFF7E7
:102C800009F888E04948844208D101212020FFF753
:102C900001F800212020FEF7FDFF7CE0444884423B
:102CA00008D101214014FFF715F800216014FFF747
:102CB00011F870E03F48844209D10121C804FFF7B0
:102CC00009F800214FF40020FFF704F863E03A48C8
:102CD000844209D101210805FEF7FCFF00214FF4D1
:102CE0008010FEF7F7FF56E03448844209D10121F5
:102CF0004805FEF7EFFF00214FF40010FEF7EAFF52
:102D000049E02F48844208D101214020FEF7C2FF4C
:102D100000214020FEF7BEFF3DE02A48844208D152
:102D200001218020FEF7B6FF00218020FEF7B2FFD0
:102D300031E02548844208D101218015FEF7AAFF21
:102D40000021A015FEF7A6FF25E02048844209D106
:102D500001210804FEF7BEFF00214FF48030FEF78A
:102D6000B9FF18E01A48844209D101214804FEF74E
:102D7000B1FF00214FF40030FEF7ACFF0BE0154827
:102D8000844208D101218804FEF7A4FF00214FF4FA
:102D90008020FEF79FFF10BD002C01400004004082
:102DA00000080040000C00400010004000140040EB
:102DB00000340140004C01400050014000540140EB
:102DC00000180040001C004000200040004001406E
:102DD000004401400048014030B502460020002375
:102DE0000024158A05EA0103958905EA010413B157
:102DF0000CB1012000E0002030BD1AB183890B43E3
:102E0000838102E083898B438381704770B50024FE
:102E100000220023058C4FF6FE7635400584028C97
:102E20008388048B4FF68F752C40B51E2C400D887F
:102E30002C43751E2A400D892A434D882A43144D80
:102E4000A8420BD0134DA84208D0134DA84205D07C
:102E5000124DA84202D0124DA84213D14FF6F77579
:102E60002A404D892A434FF6FB752A408D882A4314
:102E70004FF6FF652B404FF6FF552B408D892B43B6
:102E8000CD892B4383800483CD888586028470BDE1
:102E9000002C01400034014000400140004401404A
:102EA000004801400A460021018B4FF6F773194094
:102EB000114301837047000070B5002400220023F5
:102EC000058C4FF6EF7635400584028C8388048BA1
:102ED00048F6FF752C404FF6FF452C400D884FF605
:102EE000FF7606EA05252C434FF6DF752A400D894B
:102EF00006EA05152A434D8806EA05152A43154DAD
:102F0000A84202D0144DA8421DD14FF67F752A4029
:102F10004D894FF6FF7606EA05152A434FF6BF7531
:102F20002A408D8806EA05152A434FF6FF352B40C7
:102F30004FF2FF752B408D8906EA85052B43CD891D
:102F400006EA85052B4383800483CD8805870284A8
:102F500070BD0000002C0140003401400A460021F1
:102F6000018B4FF2FF7319404FF6FF7303EA022300
:102F7000194301837047000070B50024002200232C
:102F8000058C4FF6FF6635400584028C8388848B60
:102F90004FF68F752C404FF6FC752C400D882C4356
:102FA0004FF6FF552A400D894FF6FF7606EA0525B4
:102FB0002A434D8806EA05252A43154DA84202D02A
:102FC000144DA8421DD14FF2FF752A404D894FF68E
:102FD000FF7606EA05252A434FF6FF352A408D88FD
:102FE00006EA05252A434EF6FF752B404DF6FF7580
:102FF0002B408D8906EA05152B43CD8906EA051578
:103000002B4383808483CD888587028470BD000034
:10301000002C0140003401400A460021818B4FF60C
:10302000F77319401143818370470021018041806B
:103030008180C180018141818181C181704700000F
:10304000002202881D4B98420ED01D4B98420BD097
:10305000B0F1804F08D01B4B984205D01A4B9842D4
:1030600002D01A4B984204D14FF68F731A404B8806
:103070001A43174B984207D0164B984204D04FF68C
:10308000FF431A40CB881A4302808B8883850B88C4
:1030900003850A4B98420BD0094B984208D00E4B3F
:1030A000984205D00D4B984202D00D4B984201D169
:1030B0000B7A03860123838270470000002C0140B5
:1030C000003401400004004000080040000C0040B3
:1030D0000010004000140040004001400044014046
:1030E000004801404FF6FF71818000210180C180BE
:1030F000418001727047000070B505460024732DB1
:103100007BD008DC522D79D0702D23D0712D3FD08B
:10311000722D74D181E0742D72D0762D0DD0772D63
:10312000F7D1002211465920FEF712FC0120714907
:103130000870002070490870C2E000221146572034
:10314000FEF706FC01206D49087001216C48FEF76E
:103150003EF9B5E000206B4908706B4908706B4878
:10316000007858B96A4802780088C0F307215820CF
:10317000FEF7EEFB01206549087008E05E48027822
:1031800000215120FEF7E4FB00206049087097E021
:103190006048007828B9102200215020FEF7D8FBA3
:1031A00034E05D48007801282BD15C480078012884
:1031B00009D15B480078012805D123220021502045
:1031C000FEF7C6FB22E055480078012808D1544894
:1031D000007828B9212200215020FEF7B9FB15E024
:1031E0004E48007890B94E48007801280ED122222E
:1031F00000215020FEF7ACFB08E024E007E05EE091
:1032000047E0402200215020FEF7A2FB58E00022B8
:1032100011465220FEF79CFB52E04248007828B944
:10322000022200215320FEF793FB0BE03D4800787B
:10323000012807D100203B490870012200215320BA
:10324000FEF786FB3CE02F480078012811D12A4880
:10325000007828B1032200215420FEF779FB04E016
:10326000012200215420FEF773FB0020254908703D
:103270000EE025480078012805D1022200215420C3
:10328000FEF766FB04E0022200215420FEF760FBFB
:1032900016E02548007864280BD1002022490870E8
:1032A000FDF7D2FE1448027800215120FEF750FBB2
:1032B00004E0002211465520FEF74AFB00E000BF63
:1032C00000BF1A480088401C1849088000240DE0FF
:1032D0001748005D174908551549085DFEF706FFB8
:1032E0001348015D14480155601CC4B2052CEFDB86
:1032F00070BD00000F010020A00000203900002058
:1033000000080140A7000020A90000203200002092
:10331000B8000020A800002085000020A1000020A7
:10332000A200002087000020DF00002034000020E1
:103330003B0000202C0000204A01002070B503460D
:103340000C4615460026681E02B211E0B018411066
:1033500053F82100A04202DA481C06B208E053F8F4
:103360002100A04202DD481E02B201E0084670BD05
:103370009642EBDD1046FAE702E008C8121F08C1CA
:10338000002AFAD170477047002001E001C1121FE6
:10339000002AFBD17047000010B54FF400611248BD
:1033A000FEF70AF828B91148007840F008000F49E4
:1033B00008700E48007800F00800082810D10C486A
:1033C0000078401C0A4908700846007864280ADD25
:1033D0000020087002200749087000F0D3F902E0CD
:1033E00000200349087010BD000C0140A00000201F
:1033F000140100206800002010B504466FF004009E
:10340000FFF736F8E11704EB5171C1F3C701074A22
:1034100011701046007800EB4001C1EBC0104FF670
:10342000FF7101EAC0000249088010BD6000002061
:10343000620000200146114A12884A434FF0E023FF
:103440005A6100229A611A46126942F001021A6119
:1034500000BF4FF0E022106900F001021AB100F441
:103460008032002AF5D04FF0E022126922F00102EA
:103470004FF0E0231A6100229A6170476200002039
:103480000146114A12784A434FF0E0235A61002264
:103490009A611A46126942F001021A6100BF4FF0A8
:1034A000E022106900F001021AB100F48032002A13
:1034B000F5D04FF0E022126922F001024FF0E02334
:1034C0001A6100229A6170476000002010B5FEF773
:1034D00011FC00214FF00060FEF79EFA4FF480606F
:1034E000FEF790FAFEF794F9FEF754FD4020FFF73F
:1034F00083FFFDF76FFF4FF4FA70FFF79BFF00218A
:103500000C48FEF785FE0B4800884FF2FF7108401B
:103510000849088001210748FEF77AFE4FF4FA7146
:103520000420FEF749F9FCF71DFEFDF7C9FFFEF781
:10353000E3FF10BD00300140FFF7C8FF6848FDF70A
:1035400037FF684908800846008800F4E07008806A
:1035500008460088801108800846007800F00700BF
:1035600061490870FEF758FFFEF766FFFEF72CFB77
:10357000FDF748FBFEF712FB1420FCF71BFF5B492D
:103580000880FEF75FFBFEF72FFB4FF4E061584821
:10359000FDF71DFF2820FFF773FF4FF4E06154484B
:1035A000FDF713FF2820FFF76BFF98E051480078E4
:1035B000012809D101215048FFF70AFB01214E489B
:1035C000FFF7FAFAFDF7BCFF4A480078022812D14B
:1035D00000214948FFF7FCFA4FF4E0614448FDF749
:1035E000F4FEFEF7DBFAFEF717FFFEF725FFFEF706
:1035F000EBFAFDF707FB41480078002867D0002070
:103600003E4908703E480078401C3D4908703D48DE
:103610000088401C3B49088036480078012813D1B7
:10362000394800883949C860394800880861084627
:10363000FEF7FCF9374800883749C86037480088EA
:1036400008610846FEF74DFA2E480088022804DB80
:1036500000202C490880FDF76FF9294800780A28D6
:1036600035DB0020264908702D4800882D49088048
:103670002048007801281BD12B480078012803D16D
:103680002A4800882A49C8602748007818B929487C
:1036900000882749C860234800884FF47A7148435E
:1036A000072190FBF1F0224908610846FEF744FA31
:1036B00000201B49088020490988C1F5805188B243
:1036C000FCF798FE14381D49086000F07BF8FDF700
:1036D0004BF9FDF70BF8FDF7A5FAFEF77FF865E764
:1036E000000C014016000020BC000020C400002097
:1036F0000008014068000020002C01401400002058
:10370000AB000020AC000020E2000020C805002033
:10371000D8000020E00000200C060020DC00002083
:10372000B2000020B4000020A8000020BE0000204D
:1037300084050020C0000020CE000020D40000201E
:1037400010B50D48007800F01000102810D10B487B
:103750000078401C094908700846007801280ADBF7
:103760000020087002200649087000F00BF802E003
:1037700000200249087010BDA000002015010020A3
:103780006800002010B500210C48FFF721FA4FF423
:10379000E0610B48FDF719FE00200849343108802C
:1037A000091D0880091D0880FEF736FEFEF744FE5D
:1037B000FEF70AFAFDF726FA10BD0000002C0140C2
:1037C0000008014010B50D48007800F020002028C6
:1037D00010D10B480078401C094908700846007851
:1037E00064280ADD00200870022006490870FFF7EF
:1037F000C9FF02E000200249087010BDA0000020AF
:10380000170100206800002010B51048007800F073
:103810000200022805D00D48007800F004000428BA
:1038200010D10B480078401C094908700846007800
:1038300014280ADD00200870022006490870FFF7EE
:10384000A1FF02E000200249087010BDA000002086
:103850001301002068000020D3010000EA010000ED
:103860000102000019020000320200004B020000B9
:1038700066020000810200009D020000B902000003
:10388000D7020000F502000013030000330300001C
:10389000530300007403000095030000B703000009
:1038A000DA030000FD0300002104000046040000CC
:1038B0006B04000090040000B6040000DC0400006B
:1038C000030500002A0500005105000079050000ED
:1038D000A1050000C9050000F10500001A0600005E
:1038E000420600006B06000094060000BC060000C3
:1038F000E50600000E070000360700005F07000025
:1039000087070000AF070000D7070000FF0700008F
:10391000260800004E080000740800009B08000004
:10392000C1080000E70800000C0900003109000090
:1039300055090000790900009D090000C009000038
:10394000E3090000050A0000260A0000470A0000FB
:10395000680A0000880A0000A70A0000C60A0000E2
:10396000E40A0000020B00001F0B00003C0B0000EB
:10397000580B0000730B00008E0B0000A90B000019
:10398000C20B0000DC0B0000F50B00000D0C00006A
:10399000250C00003C0C0000520C0000690C0000DB
:1039A0007E0C0000930C0000A80C0000BC0C000072
:1039B000D00C0000E30C0000F60C0000080D000025
:1039C0001A0D00002C0D00003D0D00004E0D0000F2
:1039D0005E0D00006E0D00007D0D00008C0D0000DE
:1039E0009B0D0000A90D0000B70D0000C50D0000E3
:1039F000D20D0000DF0D0000EC0D0000F80D0000FE
:103A0000040E0000100E00001B0E0000260E000029
:103A1000310E00003B0E0000460E0000500E00006C
:103A2000590E0000630E00006C0E0000750E0000C1
:103A30007E0E0000870E00008F0E0000970E000023
:103A40009F0E0000A70E0000AE0E0000B60E000094
:103A5000008000880090009840130090241800987F
:103A60000098000306020501040000050301060496
:103A700002000000943A0008000000201801000035
:103A800078330008AC3B000818010020300A000021
:103A90008833000801000000000000000000000062
:103AA0000000000000000000000000000000000016
:103AB0000000000000000000000000000000000006
:103AC00000000000000000000000000000000000F6
:103AD00000000000000000000000000000000A00DC
:103AE0000B000C000D000E000F0000000000000095
:103AF0000000000000000000900100000000000035
:103B000000000000000000000000040604060000A1
:103B10000000000000030000000000008000000022
:103B20000000000000000000000000000000000095
:103B30000000000000000000000000000000000085
:103B40000000000000000000000000000000000075
:103B50000000E8030000000000000000000000007A
:103B60000000000000000000000000000000000055
:103B700000000000F00096000000000000000000BF
:103B80000000000000000000000000000000000035
:103B90000000000000000000000000000000000025
:0C3BA00000000000000000000000000019
:04000005080000ED02
:00000001FF
